:020000040000fa
:080000000002040000000000f2
:020000040000fa
:1000080044030000080300000e030000140300006e
:100018001a0300002003000044030000440300000a
:1000280044030000440300004403000044030000ac
:10003800440300004403000044030000440300009c
:10004800440300004403000094020000440300003d
:10005800440300004403000044030000440300007c
:10006800440300004403000044030000440300006c
:10007800440300004403000044030000440300005c
:10008800440300004403000044030000440300004c
:10009800440300004403000044030000440300003c
:1000a800440300004403000044030000440300002c
:1000b800440300004403000044030000440300001c
:1000c800440300004403000044030000440300000c
:1000d80044030000440300004403000044030000fc
:1000e80044030000440300004403000044030000ec
:1000f80044030000440300004403000044030000dc
:1001080044030000440300004403000044030000cb
:1001180044030000440300004403000044030000bb
:1001280044030000440300004403000044030000ab
:10013800440300004403000044030000440300009b
:10014800440300004403000044030000440300008b
:10015800440300004403000044030000440300007b
:10016800440300004403000044030000440300006b
:10017800440300004403000044030000440300005b
:10018800440300004403000044030000440300004b
:10019800440300004403000044030000440300003b
:1001a800440300004403000044030000440300002b
:1001b800440300004403000044030000440300001b
:1001c800440300004403000044030000440300000b
:1001d80044030000440300004403000044030000fb
:1001e80044030000440300004403000044030000eb
:0801f800440300004403000071
:020000040000fa
:1002080044030000260300002c0300003203000012
:10021800380300003e0300004403000044030000cc
:1002280044030000440300004403000044030000aa
:10023800440300004403000044030000440300009a
:10024800440300004403000094020000440300003b
:10025800440300004403000044030000440300007a
:10026800440300004403000044030000440300006a
:10027800440300004403000044030000440300005a
:10028800440300004403000044030000440300004a
:10029800440300004403000044030000440300003a
:1002a800440300004403000044030000440300002a
:1002b800440300004403000044030000440300001a
:1002c800440300004403000044030000440300000a
:1002d80044030000440300004403000044030000fa
:1002e80044030000440300004403000044030000ea
:1002f80044030000440300004403000044030000da
:1003080044030000440300004403000044030000c9
:1003180044030000440300004403000044030000b9
:1003280044030000440300004403000044030000a9
:100338004403000044030000440300004403000099
:100348004403000044030000440300004403000089
:100358004403000044030000440300004403000079
:100368004403000044030000440300004403000069
:100378004403000044030000440300004403000059
:100388004403000044030000440300004403000049
:100398004403000044030000440300004403000039
:1003a8004403000044030000440300004403000029
:1003b8004403000044030000440300004403000019
:1003c8004403000044030000440300004403000009
:1003d80044030000440300004403000044030000f9
:1003e80044030000440300004403000044030000e9
:0803f80044030000440300006f
:020000040000fa
:100400002f8020000e7f24000e01880000000000d5
:1004100000012000200288000c000700004f20008f
:100420000100200011000700000020000000e00093
:10043000020032000000020000000000bc020200c6
:10044000000000000040da000000fe004440a90067
:10045000000020000000e000030032000000200047
:10046000a00188004440a800000006009101880017
:10047000800078000000eb0015003700e2804000ab
:1004800032a0b4009101ba00e280400032a0b40072
:100490009102ba00e280400032a0b4000002eb00fa
:1004a000472bde00f507b200602ce10004003a00a3
:1004b0000059eb008301e900fdff3e000400370016
:1004c0006128e100010032000082eb000400070017
:1004d0001101ba000200e000e8ff3a000000060047
:1004e0003159ba008301e9000c0032002159ba00e9
:1004f0008301e900080032000400e00003003a0034
:10050000e280400032a0b400f5ff370011d9ba00f4
:100510008301e900faff3a008100e800e180400031
:1005200032a0b400000006003600f800809fbe0034
:10053000829fbe00849fbe00869fbe000000fa001e
:100540008540a9009540a900ff000700000278003f
:10055000044088008540a9009540a8000080fa006a
:100560004f03be004f02be004f01be004f00be0051
:100570003600f900004006000400fa00660007009b
:100580000201070089000700bc0007006022b800d4
:10059000048fbe00010037000000000010002000a2
:1005a000010020001e0f40005e9748009516800055
:1005b0000404200004826200e00f520003003200b5
:1005c000e100070000027800044088001e02be001f
:1005d000026a2800130020000400be002c0007005f
:1005e0000002be00e00f5200e08f5a00eaff3a001e
:1005f00005408000f40f2000110009008402d8009b
:10060000010278000400780081000700e3ff370052
:100610000000fa008020a900ffff37000000fa0068
:100620008060a900ffff37000000fa008040a900a9
:10063000ffff37000000fa008080a900ffff3700ad
:100640000000fa0080a0a900ffff37000000fa00b8
:100650008020a900ffff37000000fa008060a90099
:10066000ffff37000000fa008040a900ffff3700bd
:100670000000fa008080a900ffff37000000fa00a8
:1006800080a0a900ffff37000000fa00ffff37003d
:10069000811f78000100e00002003d0060001000b2
:1006a000e08018000300e00002003d00600111003e
:1006b000e0811900050007004f00e00002003b0048
:1006c00060001000e0801800000006000200070033
:1006d0000400be00000006006022b80006022000f0
:1006e0000000d0008180d2000482d2008582d20036
:1006f0000000a0000202520083825a000300310071
:100700000202420083824a000000a1000603e900c1
:08071000f3ff3a0000000600af
:020000040000fa
:100718000000fa0094022000343a8800243a80004d
:100728000460a1000470a100243a8800253a8000e2
:1007380004fe2f0004826200243a88000002eb00c5
:10074800443a880040a7a90016002000840720002a
:10075800a509200037742000844b7800854b780069
:10076800864b7800160020006404200075052000e0
:1007780027742000844b7800854b7800864b7800de
:1007880000000000153a80000400270084826200ff
:1007980004002100848f5200faff3a000080fa001a
:1007a800000006000000fa00440f2800040e88002c
:1007b80004772000440e880044002000540e88006e
:1007c8000002eb00640e88000002eb00740e880043
:1007d8000002eb00840e880004f02300a40e8800b9
:1007e800f40f2000240e88000002eb00b40e8800ed
:1007f8000002eb00c40e88000002eb00d40e880053
:100808000080fa00000006000200fa00000f7800dd
:100818001e027800e00f520007003d001516800008
:10082800c40f2000048262000410a000141688007f
:100838001e0fea000500370015168000c40f2000bf
:10084800048262000400a000141688000002eb0075
:10085800541688001e027800b40e88001e02780024
:10086800c40e88001e027800d40e88000080fa00aa
:10087800000006000000fa00847121004435880059
:10088800640120005435880004702000c4368800b4
:100898000002eb00441288000002eb0004128800fa
:1008a80014142000141288004302a80042c2a900b0
:1008b80004002800041288000080fa0000000600e6
:1008c8000000fa00940120004435880074002000dc
:1008d800c436880094802000b43688000002eb00fb
:1008e8000412880014162000141288004302a8007d
:1008f80042c2a90004002800041288000080fa00ff
:10090800000006000400fa0010079800d2c2a900ef
:1009180044138000040f78001e02900044128800df
:10092800000000000412800061026200e00f520023
:10093800fcff3200d2c2a8000080fa0000000600c6
:100948000200fa0000000000041280006102620048
:10095800e00f5200fcff320044128000040f7800c0
:10096800000000000412800061026200e00f5200e3
:10097800fcff32001e027800040078000080fa00b4
:10098800000006000000fa000002eb0004168800d0
:100998000002eb0044168800f41f2000841688002b
:1009a8000002eb00040388000002eb001403880037
:1009b8000002eb0004198800f41f20006419880065
:1009c8000002eb00843188000082eb0014168800d6
:0809d8000080fa000000060097
:020000040000fa
:1009e00000080000020000000200000032000000c9
:0409f0000000000003
:020000040000fa
:0200000401f009
:04000000cf0000002d
:020000040000fa
:0200000401f009
:04000400cf00000029
:020000040000fa
:0200000401f009
:0400080007000000ed
:020000040000fa
:0200000401f009
:04000c00810000006f
:020000040000fa
:0200000401f009
:040010006700000085
:020000040000fa
:0200000401f009
:04001400df00000009
:020000040000fa
:0200000401f009
:04001800f7000000ed
:020000040000fa
:0200000401f009
:04001c00ddff000004
:00000001FF
