:020000040000fa
:080000000002040000000000f2
:020000040000fa
:10000800d0020000940200009a020000a002000042
:10001800a6020000ac020000d0020000d0020000de
:10002800d0020000d0020000d0020000e20500006b
:10003800d0020000d0020000d0020000d002000070
:10004800d0020000d0020000d6050000d002000057
:10005800d0020000d0020000d0020000d002000050
:10006800d0020000d0020000d0020000d002000040
:10007800d0020000d0020000d0020000d002000030
:10008800d0020000d0020000d0020000d002000020
:10009800d0020000d0020000d0020000d002000010
:1000a800d0020000d0020000d0020000d002000000
:1000b800d0020000d0020000d0020000d0020000f0
:1000c800d0020000d0020000d0020000d0020000e0
:1000d800d0020000d0020000d0020000d0020000d0
:1000e800d0020000d0020000d0020000d0020000c0
:1000f800d0020000d0020000d0020000d0020000b0
:10010800d0020000d0020000d0020000d00200009f
:10011800d0020000d0020000d0020000d00200008f
:10012800d0020000d0020000d0020000d00200007f
:10013800d0020000d0020000d0020000d00200006f
:10014800d0020000d0020000d0020000d00200005f
:10015800d0020000d0020000d0020000d00200004f
:10016800d0020000d0020000d0020000d00200003f
:10017800d0020000d0020000d0020000d00200002f
:10018800d0020000d0020000d0020000d00200001f
:10019800d0020000d0020000d0020000d00200000f
:1001a800d0020000d0020000d0020000d0020000ff
:1001b800d0020000d0020000d0020000d0020000ef
:1001c800d0020000d0020000d0020000d0020000df
:1001d800d0020000d0020000d0020000d0020000cf
:1001e800d0020000d0020000d0020000d0020000bf
:0801f800d0020000d00200005b
:020000040000fa
:10020800d0020000b2020000b8020000be020000e6
:10021800c4020000ca020000d0020000d0020000a0
:10022800d0020000d0020000d0020000e205000069
:10023800d0020000d0020000d0020000d00200006e
:10024800d0020000d0020000d6050000d002000055
:10025800d0020000d0020000d0020000d00200004e
:10026800d0020000d0020000d0020000d00200003e
:10027800d0020000d0020000d0020000d00200002e
:10028800d0020000d0020000d0020000d00200001e
:10029800d0020000d0020000d0020000d00200000e
:1002a800d0020000d0020000d0020000d0020000fe
:1002b800d0020000d0020000d0020000d0020000ee
:1002c800d0020000d0020000d0020000d0020000de
:1002d800d0020000d0020000d0020000d0020000ce
:1002e800d0020000d0020000d0020000d0020000be
:1002f800d0020000d0020000d0020000d0020000ae
:10030800d0020000d0020000d0020000d00200009d
:10031800d0020000d0020000d0020000d00200008d
:10032800d0020000d0020000d0020000d00200007d
:10033800d0020000d0020000d0020000d00200006d
:10034800d0020000d0020000d0020000d00200005d
:10035800d0020000d0020000d0020000d00200004d
:10036800d0020000d0020000d0020000d00200003d
:10037800d0020000d0020000d0020000d00200002d
:10038800d0020000d0020000d0020000d00200001d
:10039800d0020000d0020000d0020000d00200000d
:1003a800d0020000d0020000d0020000d0020000fd
:1003b800d0020000d0020000d0020000d0020000ed
:1003c800d0020000d0020000d0020000d0020000dd
:1003d800d0020000d0020000d0020000d0020000cd
:1003e800d0020000d0020000d0020000d0020000bd
:0803f800d0020000d002000059
:020000040000fa
:100400008f8120000e7f24000e0188000000000074
:1004100000012000200288000c000700c0c020005e
:100420000100200011000700000020000000e00093
:100430000200320000000200000000003c06020042
:10044000000000000040da000000fe004440a90067
:10045000000020000000e000030032000000200047
:10046000a00188004440a800000006009101880017
:10047000800078000000eb0015003700e2804000ab
:1004800032a0b4009101ba00e280400032a0b40072
:100490009102ba00e280400032a0b4000002eb00fa
:1004a000472bde00f507b200602ce10004003a00a3
:1004b0000059eb008301e900fdff3e000400370016
:1004c0006128e100010032000082eb000400070017
:1004d0001101ba000200e000e8ff3a000000060047
:1004e0003159ba008301e9000c0032002159ba00e9
:1004f0008301e900080032000400e00003003a0034
:10050000e280400032a0b400f5ff370011d9ba00f4
:100510008301e900faff3a008100e800e180400031
:1005200032a0b400000006000000fa008020a900fc
:10053000ffff37000000fa008060a900ffff3700ce
:100540000000fa008040a900ffff37000000fa0019
:100550008080a900ffff37000000fa0080a0a900fa
:10056000ffff37000000fa008020a900ffff3700de
:100570000000fa008060a900ffff37000000fa00c9
:100580008040a900ffff37000000fa008080a9002a
:10059000ffff37000000fa0080a0a900ffff37002e
:1005a0000000fa00ffff37000001be002200070034
:1005b0000470a70003f0a1006509b1001600320025
:1005c0000d0035006828e10006003500f0ff2f001f
:1005d000f1ff27000300e00013003b0001002800aa
:1005e0000000050000004000818048008502e9000d
:1005f000fcff3a0008003700f88f420002003c0080
:100600008000eb00000005008100d1000080d300d5
:100610008502e800fcff3a000300e00002003b0016
:1006200060001000e0801800000006004f89de0026
:100630008201780049003700c70ade00f107b200e6
:10064000f50fb20008003200e1cf42000200320094
:100650000170a00024000500810f7000010032002d
:100660000408050044000500810f700002003a00f4
:10067000140005008502e9000000400081c0480028
:10068000fcff3b000170a00024000500889fbe0015
:100690008a9fbe008c1f7800950007009c003300e5
:1006a00003866c006450e100240032006420e10005
:1006b000270032006150e100220032006120e10099
:1006c000210032008b854200eb07b1000134b800f5
:1006d000003ab8000804420089844a00013ab80090
:1006e0000030b8008880400009014a00040033004f
:1006f0000000400081804800020149008b05e900ac
:10070000c909dd00830170000100320013002000e0
:10071000c814de004814dd004709de001200b200f4
:10072000c808de00088470004b00070001f0a1003b
:100730000cf0a70001f0a0007e0037006120e1006e
:10074000800032000801be000200be00f7ff370043
:100750006150e100fcff3a007a003700881f780002
:10076000030478000300e00007003d006000100073
:10077000e080180060011900e081190002003b00d0
:1007800001f02d00030037000400070008f0a70067
:1007900001f0a0004f04780000000600889fbe0012
:1007a0008a9fbe0000827000040271000482710002
:1007b000260032000004be000200be006011b80036
:1007c0006b092000950220000182cf000a00390049
:1007d0000541b1000082cf00070039000541b1009a
:1007e0000982cf00040039000541b1000882cf0022
:1007f000010039000541b1000542520012003200eb
:100800000a003b0082817100610164008100d10017
:100810000080d3008984d3000884d3008b05e800ce
:100820000442e800f7ff3a000700370008044400dc
:1008300089844c0000004800818048008b05e90055
:100840000442e900f9ff3a00030007004f05be002b
:100850004f04be00000006008100200061805500aa
:100860000b003d000b00200061fe2f000100e100a5
:100870001d00340082817100610164008904d1008f
:100880000884d3000000e800faff3a00710020005d
:100890006100640003007000020060000900320083
:1008a00061044400e0844c000988a5000500320082
:1008b0008b05e8006808e10002003a008904d100d5
:1008c0000884d300f20f20000258e10005003d002b
:1008d000c75ddd00f907b200898075000800780067
:1008e000000006000bf827008b00780000000500d0
:1008f0000004be0050ff07000003be000405be0058
:100900000200be004cff0700844f75000000060087
:100910000200be006450e100050036006420e100e2
:10092000020036000968a30001003a000800be007a
:100930000160a0004f0678004f05be004f04be00c6
:1009400000000600f0ff2f00f1ff2700f9ff37003d
:020000040000fa
:100950000400fa000002eb00040f7800a40020005d
:100960001407980072030700000278000440880012
:100970007403070000027800144088000002eb00b6
:10098000040f78003d0037001e0278008402420008
:100990000480200004824200940278001e02780045
:1009a0000403420044802000040243001403780042
:1009b0001e029000110009000403d8000002780014
:1009c000848252001e0278000403420084802000ca
:1009d00004024300050a78001e02780084024200e7
:1009e0008480200004824200940278001e02780075
:1009f00004034200c4802000040243001403780072
:100a00001e029000110009000403d80000027800c3
:100a1000848252001e0278000403420004812000f8
:100a200004024300050a78001e0278008402420096
:100a30000480200004824200940278001e027800a4
:100a4000040342004480200004024300050a7800a9
:100a50001e0278008402420084802000048242004a
:100a6000940278001e02780004034200c480200033
:100a700004024300050a78001e0fe8001e027800f9
:100a8000e10f5200c0ff34000080fa0000000600b1
:100a90000200fa00004f7800114798000080fa0029
:100aa000000006001000fa00881f78002007980058
:100ab0006147980042079800530798006407980020
:100ac000750798000002eb00040f78000002eb00ad
:100ad000140798006e4290000402fb00840242005a
:100ae000048020000482420014027800ae029000cc
:100af00004825200cfa2de000400be00cbfe07003d
:100b00000002be004e019000de0190000400be0015
:100b1000defe07000002be000400be00a2fe0700c9
:100b20000002be00040478006e4290000402fb0044
:100b30008402420084802000048242001402780073
:100b40009e02900004825200cfa2de000400be008c
:100b5000b6fe07000002be006e019000fe0190008c
:100b60000400be00c9fe07000002be000400be0073
:100b70008dfe07000002be0004027800040f44004e
:100b8000e47c20009e027800848f52000200340032
:100b9000f47c2000040f78001e0278000400780026
:100ba0004f0478000080fa00000006000000fa0000
:100bb0009540a9008540a9009540a8000080fa0052
:100bc000004006003600f800809fbe00829fbe00f5
:100bd000849fbe00869fbe000e00fa000042eb001c
:100be000044f78000002eb00140798000400200076
:100bf00005f8230024079800350798006022b80004
:100c000044079800550798000042eb00444f9800b5
:100c1000541680000482ea00541688004cff070036
:100c2000b64080004e029000de0290002e0190003f
:100c3000be0190009e4078000600780099ff0700f2
:100c400000027800140798004e4990009e407800fa
:100c50001e0090001e0107008460a9000080fa00b9
:100c60004f03be004f02be004f01be004f00be004a
:100c70003600f900004006002a00fa00881f7800bc
:100c80001a02070043020700d3000700f100070023
:100c900053020700ae010700670207008502070044
:100ca0006022b80034079800450798006022b80019
:100cb00054079800650798000002eb00740798003d
:100cc00014c0b300044f780014c0b3000457980058
:100cd0000042eb00144798000042eb0024479800c4
:100ce0000042eb00145798000042eb002457980094
:100cf0000042eb00345798000042eb004457980044
:100d00000042eb00344798000e0278000402b00065
:100d100004000900001aeb000042eb004447980071
:100d20000042eb00545798006400200054168800dd
:100d3000050037000000000003003700000000003d
:100d40000100370000000000041280006102620010
:100d5000e00f5200f7ff32001e427800e04f5200d1
:100d60004a003200a2010700004278000482fb0022
:100d70000500200054079800650798000042eb002a
:100d8000044f78005e029000ee02900026002000e2
:100d900007002000860f5200878f5a001200320091
:100da0003600200007002000860f5200878f5a006f
:100db000270032001600200007002000860f520096
:100dc000878f5a00ddff3a0014c0b3001447980023
:100dd00034c0b300344798003e4290000482fb00c8
:100de000441288002800370014c0b300244798003c
:100df00064c0b3003447980014c0b300645798002f
:100e0000044080004822de000442780074579800b5
:100e10000440800004427800045f980024c0b300be
:100e2000145f9800144080004822de0004427800dd
:100e3000245f98001440800004427800345f9800da
:100e40003e4290000482fb00441288000e003700ee
:100e500014c0b3002447980034c0b300344798004e
:100e60000e629000645798001e62900074579800bc
:100e70002e629000045f98003e4290000482fb00c6
:100e80004412880000000000afff37001e429000af
:100e9000e04f5200270032004e429000e04f5200d7
:100ea00004003a004e4290000442e8004447980093
:100eb000a5ff37004e4290000482fb008402e90047
:100ec0003e4290000482fb00848f520007003400f1
:100ed0001e429000044f78000042eb001447980037
:100ee0000042eb004447980097ff37004e429000c5
:100ef0000482fb000404e9003d0107000042780081
:100f000088024700846298004e4290000482fb00f1
:100f10000402e90004024700046290000482fb001e
:100f2000441288004e4290000442e8004447980072
:100f300085ff37002e429000e04f520081ff3200c3
:100f40004e429000e04f520004003a004e429000a2
:100f50000442e800444798007bff37004e4290006f
:100f60000482fb008402e9003e4290000482fb0000
:100f7000848f5200070034002e429000044f780006
:100f80000042eb00244798000042eb0044479800e1
:100f90006dff370016010700004278000482fb0055
:100fa0000500200034079800450798004e42900045
:100fb0000482fb000402e90004024700645290002e
:100fc0000482fb00441288004e4290000442e80074
:100fd000444798005cff37000000fa00c1e1a90017
:100fe000040e80000400a1000410a100040e88007b
:100ff000040e80000420a1000430a100040e88002b
:10100000040e80000440a1000450a1000460a1006f
:101010000470a100040e8800f47c2000240e8800d7
:10102000c901a800c881a800c801a800ca41a80039
:10103000d521a900d501a900d421a900d401a90076
:10104000c1e1a8000000eb00940007000080fa0056
:10105000000006000000fa00c1e1a900040e8000b3
:101060000400a1000410a100040e8800040e8000fa
:101070000420a1000430a100040e8800040e8000aa
:101080000440a1000450a1000460a1000470a1006c
:10109000040e8800f47c2000240e8800c921a800da
:1010a000c8a1a800c821a800ca41a800d561a9000c
:1010b000d541a900d461a900d441a900c1e1a8008b
:1010c0000000eb007b0007000080fa000000060033
:1010d0000400fa00000f780021479800324798007a
:1010e0001e027800e00f52000c003d001e0fea00c7
:1010f0002e429000e04f520004003a001e02780099
:101100000400780037000700220037001e02780034
:10111000040078003c0007001e0037001e02780023
:10112000e00f52000b0034002e429000e04f5200be
:1011300004003a001e02780004007800170007003f
:10114000140037001e027800040078001c0007001d
:10115000100037003e429000e04f5200070032007e
:101160002e429000e04f520002003a002f0007008c
:101170000800370034000700060037002e429000b8
:10118000e04f520002003a0036000700010037002d
:101190003b0007000080fa00000006000200fa0091
:1011a000000f7800d521a800d501a900d401a9001d
:1011b0001e007800390007000080fa0000000600d9
:1011c0000200fa00000f7800d561a800d541a900ff
:1011d000d441a9001e007800360007000080fa0004
:1011e000000006000200fa00000f7800d521a900d7
:1011f000d501a800d421a9001e007800270007000f
:101200000080fa00000006000200fa00000f7800db
:10121000d561a900d541a800d461a9001e007800bd
:10122000240007000080fa00000006000000fa0019
:10123000d521a900d501a900d421a800d401a80076
:101240000080fa00000006000000fa00d561a90045
:10125000d541a900d461a800d441a8000080fa00bb
:10126000000006000000fa00d521a900d501a90060
:10127000d421a900d401a9000080fa0000000600d2
:101280000000fa00d561a900d541a900d461a900e8
:10129000d441a9000080fa00000006000200fa0014
:1012a000000f78001e027800b40e88000080fa005b
:1012b000000006000200fa00000f78001e0278000d
:1012c000c40e88000080fa00000006000000fa004a
:1012d00041e2a900b5368000f40f2e00848262003e
:1012e0000480200004827200b4368800c536800075
:1012f00004fe2f00048262007400b300c43688002c
:101300004535800004fe2f00048262009401b30082
:1013100044358800d0c2a900d4c2a8008540a900e5
:101320009540a9004382a9004362a9004342a90055
:1013300042a2a80042e2a8004322a9004302a90059
:1013400042c2a90041e2a8000080fa0000000600a5
:101350000000fa0041e2a90045358000f40f2e009c
:101360008482620004702100048272004435880087
:101370004535800004fe2f00048262008401b30022
:1013800044358800c5368000f40f2e008482620048
:101390000470200004827200c43688005535800035
:1013a00004fe2f00048262006401b30054358800fb
:1013b0000002eb00441288008540a9009540a90076
:1013c0004382a9004362a9004342a90042a2a900a6
:1013d0004322a9004302a90042e2a80042c2a90098
:1013e00040c2a90041e2a8000080fa000000060007
:1013f0000000fa00441280000442780004407800a3
:101400000080fa00000006000400fa00204798005f
:10141000d4c2a90044128000044f78002e429000ec
:101420000482fb00441288000000000004128000c7
:1014300061026200e00f5200fcff3200d4c2a8003b
:101440000080fa00000006000a00fa001007980069
:101450004147980032079800034f98000e4a9000c9
:10146000e04f520004003a00e1ff0700004278001c
:10147000044f7800140037000e4a90000482fb00ed
:101480008402e9004e4290000482fb00848f5200e7
:1014900008003d00d6ff070000427800044f7800a6
:1014a0000e4a90000482fb000402e9004412880006
:1014b000050037000042eb00044f9800be02900088
:1014c0000042eb00844a78000080fa000000060029
:1014d0000800fa00000f78002147980022079800c2
:1014e000634798000080fa00000006000000fa0040
:1014f00094022000343a8800243a80000460a1005d
:101500000470a100243a8800253a800004fe2f00d0
:1015100004826200243a880016002000840720001c
:10152000a509200037742000844b7800854b780093
:10153000864b7800143a8000040378000600a0006f
:10154000640420007505200027742000844b780077
:10155000854b7800864b780000000000153a80002b
:10156000040027008482620004002100848f52005e
:10157000faff3a0000000000153a80000402200043
:1015800004826200e00f5200fbff32000080fa008c
:10159000000006000000fa00f40120000416880094
:1015a000f4fe2f0044168800f43f200084168800c3
:1015b0000002eb00040388000002eb001403880023
:1015c0000002eb0004198800f41f20006419880051
:1015d0000002eb00843188000080fa000000060061
:1015e0000000fa0005e1a9000421a90004c1a90036
:1015f000240880000440a0000450a00024088800b3
:101600000002eb0004088800c404200014088800cd
:101610002405800004c0a00004d0a10004e0a100c3
:10162000240588008460a9009460a80005e1a80052
:101630000080fa00000006000000fa00e534800097
:1016400004fe2f00048262004401b300e4348800e9
:10165000e5348000f40f2e008482620004502100e3
:1016600004827200e4348800e1e1a900e1a1a9004c
:10167000040f80000480a0000490a00004a0a0003b
:10168000040f8800e0e1a900e301a800e2e1a8005e
:10169000140f80000440a1000450a1000460a100c8
:1016a000140f88000082eb00340f88000080fa00dd
:1016b000000006000000fa000535800004fe2f003f
:1016c000048262000440a0000435880005358000d3
:1016d000f40f2e0084826200041021000482720044
:1016e00004358800f1e1a900f1a1a900840f800070
:1016f0000480a0000490a00004a0a000840f880033
:10170000f0e1a900f301a800f2e1a800940f800025
:101710000440a1000450a1000460a100940f8800bf
:101720000082eb00b40f88000080fa000000060081
:101730000000fa00240f8000040078000080fa0006
:10174000000006000000fa00a40f800004007800ea
:101750000080fa00000006000000fa000002eb0022
:10176000240f88000080fa00000006000000fa0044
:101770000002eb00a40f88000080fa0000000600c1
:101780000000fa0021e3a9002c03a9002c23a900e2
:101790002143a9002103a9002123a90004198000e5
:1017a0000450a0000460a0000470a1000419880087
:1017b0002063a8002043a8001419800004d0a100d1
:1017c00004e0a10004f0a10014198800141980009d
:1017d0000480a0000490a100141988002203a9002d
:1017e00028e3a9004519800004fe2f00048262004e
:1017f0000430a00044198800341980000410a100ae
:101800000420a100341988002603a90021e3a800c0
:081810000080fa000000060050
:020000040000fa
:10181800000800001800000002000000000000009e
:1018280000000000000000000000000000000000b0
:10183800000000000000320000ff3f000000000030
:020000040000fa
:0200000401f009
:04000000cf0000002d
:020000040000fa
:0200000401f009
:04000400cf00000029
:020000040000fa
:0200000401f009
:0400080007000000ed
:020000040000fa
:0200000401f009
:04000c0001000000ef
:020000040000fa
:0200000401f009
:0400100045000000a7
:020000040000fa
:0200000401f009
:040014005f00000089
:020000040000fa
:0200000401f009
:04001800f7000000ed
:020000040000fa
:0200000401f009
:04001c00ddff000004
:00000001FF
